:020000040000FA
:1000000070880000FD0000000000000000000000FB
:1000100000000000000000000000000000000000E0
:1000200000000000000000000000000000000000D0
:10003000000000000000000000000000A10100001E
:1000400000000000000000000000000000000000B0
:1000500000000000000000000000000000000000A0
:100060000000000000000000000000000000000090
:100070000000000000000000000000000000000080
:1000800000F002F800F02BF80AA090E8000C82447F
:100090008344AAF10107DA4501D100F020F8AFF25C
:1000A000090EBAE80F0013F0010F18BFFB1A43F056
:1000B000010318475C0100006C010000103A24BFE6
:1000C00078C878C1FAD8520724BF30C830C144BFBD
:1000D00004680C6070471FB51FBD10B510BD00F05F
:1000E00024F81146FFF7F7FF00F062F800F042F83D
:1000F00003B4FFF7F2FF03BC00F04AF804480047DE
:10010000FEE7FEE703480449044A054B7047000038
:100110008100000070800000708800007084000082
:1001200070840000704770477047754600F02CF8E7
:10013000AE4605006946534620F00700854618B0D4
:1001400020B5FFF7DFFFBDE820404FF000064FF07D
:1001500000074FF000084FF0000B21F00701AC46FC
:10016000ACE8C009ACE8C009ACE8C009ACE8C0091B
:100170008D46704710B50446AFF300802046BDE8B9
:100180001040FFF7B5BF0000004870470C8000002A
:1001900001491820ABBEFEE72600020070470000B0
:1001A00002480068401C0149086070470080000058
:1001B0000FB5114E74CE8DE8740000BF4FF410409F
:1001C0000E4A0260001D4FF05A3202604FF040218B
:1001D0000B1DFF221A600DE0FF220A60002200E0E2
:1001E000521C0A2AFCDB00220A6000BF00E0521CFD
:1001F0000A2AFCDBF0E7000000020000CDABCDAB2B
:1002000068656C6C6F20776F726C64210000000071
:1002100020020000008000000C000000BC00000074
:0C022000000000000000000000000000D2
:04000005000000FDFA
:00000001FF
