:020000040000FA
:10000000708800001D0100000000000000000000DA
:1000100000000000000000000000000000000000E0
:1000200000000000000000000000000000000000D0
:10003000000000000000000000000000C1010000FE
:1000400000000000000000000000000000000000B0
:1000500000000000000000000000000000000000A0
:100060000000000000000000000000000000000090
:100070000000000000000000000000000000000080
:1000800000F002F800F03AF80AA090E8000C824470
:100090008344AAF10107DA4501D100F02FF8AFF24D
:1000A000090EBAE80F0013F0010F18BFFB1A43F056
:1000B000010318472C0200004C020000103A24BF34
:1000C00078C878C1FAD8520724BF30C830C144BFBD
:1000D00004680C60704700000023002400250026FF
:1000E000103A28BF78C1FBD8520728BF30C148BF9B
:1000F0000B6070471FB51FBD10B510BD00F025F88F
:100100001146FFF7F7FF00F063F800F043F803B47F
:10011000FFF7F2FF03BC00F04BF800000448004773
:10012000FEE7FEE703480449044A054B7047000018
:100130008100000070800000708800007084000062
:1001400070840000704770477047754600F02CF8C7
:10015000AE4605006946534620F00700854618B0B4
:1001600020B5FFF7DFFFBDE820404FF000064FF05D
:1001700000074FF000084FF0000B21F00701AC46DC
:10018000ACE8C009ACE8C009ACE8C009ACE8C009FB
:100190008D46704710B50446AFF300802046BDE899
:1001A0001040FFF7B4BF0000004870470C8000000B
:1001B00001491820ABBEFEE7260002007047000090
:1001C00002480068401C0149086070470080000038
:1001D0004FF4404601213D4800F07FF800213C48A3
:1001E00000F07BF840213A48001D00F076F801212C
:1001F0003748083000F071F800241FE000BF334892
:10020000001D00F067F800F010000028F7D02F481C
:10021000083000F05FF820F07F4546F8245000BF1A
:100220002B480C3000F056F800F008000028F7D0FA
:1002300029462748103000F050F8641C102CDDD3FC
:1002400000BF23480C3000F045F800F00200002801
:10025000F7D002211E480C3000F03FF800211C4866
:1002600000F03BF840211A48001D00F036F802214A
:100270001748083000F031F800240FE000BF1448A0
:100280000C3000F027F800F010000028F7D01048DC
:10029000143000F01FF846F82400641C102CEDD335
:1002A00000BF0B480C3000F015F800F002000028E9
:1002B000F7D0022106480C3000F00FF84FF0A531BE
:1002C0004BF6FC7000F009F800BFFEE700C00040EC
:1002D00000D0004001460868704701607047000088
:1002E00000030000008000000C000000BC000000C3
:1002F0000C0300000C80000064080000D80000001F
:0C030000000000000000000000000000F1
:040000050000011DD9
:00000001FF
