:020000040000FA
:10000000708800001D0100000000000000000000DA
:1000100000000000000000000000000000000000E0
:1000200000000000000000000000000000000000D0
:10003000000000000000000000000000C1010000FE
:1000400000000000000000000000000000000000B0
:1000500000000000000000000000000000000000A0
:100060000000000000000000000000000000000090
:100070000000000000000000000000000000000080
:1000800000F002F800F03AF80AA090E8000C824470
:100090008344AAF10107DA4501D100F02FF8AFF24D
:1000A000090EBAE80F0013F0010F18BFFB1A43F056
:1000B000010318470802000028020000103A24BF7C
:1000C00078C878C1FAD8520724BF30C830C144BFBD
:1000D00004680C60704700000023002400250026FF
:1000E000103A28BF78C1FBD8520728BF30C148BF9B
:1000F0000B6070471FB51FBD10B510BD00F025F88F
:100100001146FFF7F7FF00F067F800F043F803B47B
:10011000FFF7F2FF03BC00F04BF800000448004773
:10012000FEE7FEE703480449044A054B7047000018
:100130008100000070800000708800007084000062
:1001400070840000704770477047754600F02CF8C7
:10015000AE4605006946534620F00700854618B0B4
:1001600020B5FFF7DFFFBDE820404FF000064FF05D
:1001700000074FF000084FF0000B21F00701AC46DC
:10018000ACE8C009ACE8C009ACE8C009ACE8C009FB
:100190008D46704710B50446AFF300802046BDE899
:1001A0001040FFF7B4BF0000004870470C8000000B
:1001B00001491820ABBEFEE7260002007047000090
:1001C00002480068401C0149086070470080000038
:1001D0000048704700710200FFF7FAFF82464FF4B3
:1001E000E1321C491C4800F03BF801211B4800F09B
:1001F00063F8002624E000BF00BF1848001D006817
:1002000000F010000028F7D000BF14480830046840
:1002100000BFE7B2C4F30728C4F30749250E3946E7
:100220000D4800F03AF841460B4800F036F84946D0
:10023000094800F032F82946074800F02EF8761CED
:100240005645D8D34FF0A5314BF6FC7000F034F88A
:1002500000BFFEE780F0FA020050004000C00040FE
:100260002DE9F04104460E46154606EB5500B0FB5D
:10027000F5F7102F00D21027394604F1100000F0D6
:100280001BF80F2104F10C0000F016F8012104F115
:10029000080000F011F8BDE8F08170B504460D4685
:1002A00000BF00BF606800F001000028F9D12946B6
:1002B000204600F001F870BD01607047DC020000CC
:1002C000008000000C000000BC000000E8020000FC
:1002D0000C80000064080000D8000000000000004E
:0802E000000000000000000016
:040000050000011DD9
:00000001FF
