:020000040000FA
:1000000070880000FD0000000000000000000000FB
:1000100000000000000000000000000000000000E0
:1000200000000000000000000000000000000000D0
:10003000000000000000000000000000A10100001E
:1000400000000000000000000000000000000000B0
:1000500000000000000000000000000000000000A0
:100060000000000000000000000000000000000090
:100070000000000000000000000000000000000080
:1000800000F002F800F02BF80AA090E8000C82447F
:100090008344AAF10107DA4501D100F020F8AFF25C
:1000A000090EBAE80F0013F0010F18BFFB1A43F056
:1000B000010318470802000018020000103A24BF8C
:1000C00078C878C1FAD8520724BF30C830C144BFBD
:1000D00004680C6070471FB51FBD10B510BD00F05F
:1000E00024F81146FFF7F7FF00F062F800F042F83D
:1000F00003B4FFF7F2FF03BC00F04AF804480047DE
:10010000FEE7FEE703480449044A054B7047000038
:100110008100000070800000708800007084000082
:1001200070840000704770477047754600F02CF8E7
:10013000AE4605006946534620F00700854618B0D4
:1001400020B5FFF7DFFFBDE820404FF000064FF07D
:1001500000074FF000084FF0000B21F00701AC46FC
:10016000ACE8C009ACE8C009ACE8C009ACE8C0091B
:100170008D46704710B50446AFF300802046BDE8B9
:100180001040FFF7B5BF0000004870470C8000002A
:1001900001491820ABBEFEE72600020070470000B0
:1001A00002480068401C0149086070470080000058
:1001B0004FF4404601213C4800F07DF800213B48C7
:1001C00000F079F840213948001D00F074F8012151
:1001D0003648083000F06FF800241DE000BF3248B8
:1001E000001D00F065F800F010000028F7D02E4840
:1001F000083000F05DF820F07F4500BF2B480C3040
:1002000000F056F800F008000028F7D029462748EB
:10021000103000F050F8641C102CDFD300BF2348CE
:100220000C3000F045F800F002000028F7D0022161
:100230001E480C3000F03FF800211C4800F03BF84D
:1002400040211A48001D00F036F8022117480830F6
:1002500000F031F800240FE000BF14480C3000F02B
:1002600027F800F010000028F7D01048143000F0F4
:100270001FF846F82400641C102CEDD300BF0B4877
:100280000C3000F015F800F002000028F7D0022131
:1002900006480C3000F00FF84FF0A5314BF6FC701B
:1002A00000F009F800BFFEE700C0004000D00040A9
:1002B000014608687047016070470000CC020000EA
:1002C000008000000C000000BC00000000000000E6
:0802D000000000000000000026
:04000005000000FDFA
:00000001FF
